{
  "_format": "hh-sol-artifact-1",
  "contractName": "DepositStableToken",
  "sourceName": "contracts/DepositStableToken.sol",
  "abi": [
    {
      "anonymous": false,
      "inputs": [
        {
          "indexed": false,
          "internalType": "string",
          "name": "userId",
          "type": "string"
        },
        {
          "indexed": true,
          "internalType": "address",
          "name": "treasury",
          "type": "address"
        },
        {
          "indexed": true,
          "internalType": "address",
          "name": "assetIn",
          "type": "address"
        },
        {
          "indexed": false,
          "internalType": "uint256",
          "name": "amountIn",
          "type": "uint256"
        },
        {
          "indexed": false,
          "internalType": "uint256",
          "name": "assetOut",
          "type": "uint256"
        }
      ],
      "name": "DepositStableToken",
      "type": "event"
    },
    {
      "anonymous": false,
      "inputs": [
        {
          "indexed": false,
          "internalType": "uint8",
          "name": "version",
          "type": "uint8"
        }
      ],
      "name": "Initialized",
      "type": "event"
    },
    {
      "anonymous": false,
      "inputs": [
        {
          "indexed": true,
          "internalType": "address",
          "name": "previousOwner",
          "type": "address"
        },
        {
          "indexed": true,
          "internalType": "address",
          "name": "newOwner",
          "type": "address"
        }
      ],
      "name": "OwnershipTransferred",
      "type": "event"
    },
    {
      "anonymous": false,
      "inputs": [
        {
          "indexed": false,
          "internalType": "address",
          "name": "account",
          "type": "address"
        }
      ],
      "name": "Paused",
      "type": "event"
    },
    {
      "anonymous": false,
      "inputs": [
        {
          "indexed": false,
          "internalType": "address",
          "name": "account",
          "type": "address"
        }
      ],
      "name": "Unpaused",
      "type": "event"
    },
    {
      "inputs": [
        {
          "internalType": "string",
          "name": "_userId",
          "type": "string"
        },
        {
          "internalType": "uint256",
          "name": "_amountIn",
          "type": "uint256"
        },
        {
          "internalType": "uint256",
          "name": "_assetOut",
          "type": "uint256"
        }
      ],
      "name": "depositAsset",
      "outputs": [],
      "stateMutability": "nonpayable",
      "type": "function"
    },
    {
      "inputs": [
        {
          "internalType": "uint256",
          "name": "_minDeposit",
          "type": "uint256"
        },
        {
          "internalType": "address",
          "name": "_stableToken",
          "type": "address"
        },
        {
          "internalType": "address",
          "name": "_treasury",
          "type": "address"
        }
      ],
      "name": "init",
      "outputs": [],
      "stateMutability": "nonpayable",
      "type": "function"
    },
    {
      "inputs": [],
      "name": "minDeposit",
      "outputs": [
        {
          "internalType": "uint256",
          "name": "",
          "type": "uint256"
        }
      ],
      "stateMutability": "view",
      "type": "function"
    },
    {
      "inputs": [],
      "name": "owner",
      "outputs": [
        {
          "internalType": "address",
          "name": "",
          "type": "address"
        }
      ],
      "stateMutability": "view",
      "type": "function"
    },
    {
      "inputs": [],
      "name": "pause",
      "outputs": [],
      "stateMutability": "nonpayable",
      "type": "function"
    },
    {
      "inputs": [],
      "name": "paused",
      "outputs": [
        {
          "internalType": "bool",
          "name": "",
          "type": "bool"
        }
      ],
      "stateMutability": "view",
      "type": "function"
    },
    {
      "inputs": [],
      "name": "renounceOwnership",
      "outputs": [],
      "stateMutability": "nonpayable",
      "type": "function"
    },
    {
      "inputs": [],
      "name": "stableToken",
      "outputs": [
        {
          "internalType": "address",
          "name": "",
          "type": "address"
        }
      ],
      "stateMutability": "view",
      "type": "function"
    },
    {
      "inputs": [
        {
          "internalType": "address",
          "name": "newOwner",
          "type": "address"
        }
      ],
      "name": "transferOwnership",
      "outputs": [],
      "stateMutability": "nonpayable",
      "type": "function"
    },
    {
      "inputs": [],
      "name": "treasury",
      "outputs": [
        {
          "internalType": "address",
          "name": "",
          "type": "address"
        }
      ],
      "stateMutability": "view",
      "type": "function"
    },
    {
      "inputs": [],
      "name": "unpause",
      "outputs": [],
      "stateMutability": "nonpayable",
      "type": "function"
    },
    {
      "inputs": [
        {
          "internalType": "uint256",
          "name": "_min",
          "type": "uint256"
        }
      ],
      "name": "updateMinDeposit",
      "outputs": [],
      "stateMutability": "nonpayable",
      "type": "function"
    },
    {
      "inputs": [
        {
          "internalType": "address",
          "name": "_stableToken",
          "type": "address"
        }
      ],
      "name": "updateStableToken",
      "outputs": [],
      "stateMutability": "nonpayable",
      "type": "function"
    },
    {
      "inputs": [
        {
          "internalType": "address",
          "name": "_newTreasury",
          "type": "address"
        }
      ],
      "name": "updateTreasury",
      "outputs": [],
      "stateMutability": "nonpayable",
      "type": "function"
    }
  ],
  "bytecode": "0x608060405234801561001057600080fd5b50611af9806100206000396000f3fe608060405234801561001057600080fd5b50600436106100ea5760003560e01c80637f51bb1f1161008c5780639a7be471116100665780639a7be471146101d9578063a9d75b2b146101f5578063dc8471c714610213578063f2fde38b1461022f576100ea565b80637f51bb1f146101955780638456cb59146101b15780638da5cb5b146101bb576100ea565b80635c975abb116100c85780635c975abb1461013357806361d027b3146101515780636678d10e1461016f578063715018a61461018b576100ea565b80633f4ba83a146100ef57806341b3d185146100f95780634557b4bb14610117575b600080fd5b6100f761024b565b005b61010161025d565b60405161010e9190610fd7565b60405180910390f35b610131600480360381019061012c9190611086565b610263565b005b61013b610435565b60405161014891906110f4565b60405180910390f35b61015961044c565b604051610166919061111e565b60405180910390f35b61018960048036038101906101849190611139565b610472565b005b61019361052f565b005b6101af60048036038101906101aa9190611139565b610543565b005b6101b9610600565b005b6101c3610612565b6040516101d0919061111e565b60405180910390f35b6101f360048036038101906101ee9190611166565b61063c565b005b6101fd610691565b60405161020a919061111e565b60405180910390f35b61022d600480360381019061022891906111f8565b6106b7565b005b61024960048036038101906102449190611139565b6107f9565b005b61025361087c565b61025b6108fa565b565b60975481565b60008060019054906101000a900460ff161590508080156102945750600160008054906101000a900460ff1660ff16105b806102c157506102a33061095d565b1580156102c05750600160008054906101000a900460ff1660ff16145b5b610300576040517f08c379a00000000000000000000000000000000000000000000000000000000081526004016102f7906112ef565b60405180910390fd5b60016000806101000a81548160ff021916908360ff160217905550801561033d576001600060016101000a81548160ff0219169083151502179055505b610345610980565b61034d6109d9565b8360978190555082609860006101000a81548173ffffffffffffffffffffffffffffffffffffffff021916908373ffffffffffffffffffffffffffffffffffffffff16021790555081609960006101000a81548173ffffffffffffffffffffffffffffffffffffffff021916908373ffffffffffffffffffffffffffffffffffffffff160217905550801561042f5760008060016101000a81548160ff0219169083151502179055507f7f26b83ff96e1f2b6a682f133852f6798a09c465da95921460cefb384740249860016040516104269190611361565b60405180910390a15b50505050565b6000606560009054906101000a900460ff16905090565b609960009054906101000a900473ffffffffffffffffffffffffffffffffffffffff1681565b80600073ffffffffffffffffffffffffffffffffffffffff168173ffffffffffffffffffffffffffffffffffffffff16036104e2576040517f08c379a00000000000000000000000000000000000000000000000000000000081526004016104d9906113c8565b60405180910390fd5b6104ea61087c565b81609860006101000a81548173ffffffffffffffffffffffffffffffffffffffff021916908373ffffffffffffffffffffffffffffffffffffffff1602179055505050565b61053761087c565b6105416000610a32565b565b80600073ffffffffffffffffffffffffffffffffffffffff168173ffffffffffffffffffffffffffffffffffffffff16036105b3576040517f08c379a00000000000000000000000000000000000000000000000000000000081526004016105aa906113c8565b60405180910390fd5b6105bb61087c565b81609960006101000a81548173ffffffffffffffffffffffffffffffffffffffff021916908373ffffffffffffffffffffffffffffffffffffffff1602179055505050565b61060861087c565b610610610af8565b565b6000603360009054906101000a900473ffffffffffffffffffffffffffffffffffffffff16905090565b61064461087c565b60008111610687576040517f08c379a000000000000000000000000000000000000000000000000000000000815260040161067e90611434565b60405180910390fd5b8060978190555050565b609860009054906101000a900473ffffffffffffffffffffffffffffffffffffffff1681565b6106bf610b5b565b609754821015610704576040517f08c379a00000000000000000000000000000000000000000000000000000000081526004016106fb906114a0565b60405180910390fd5b6000609860009054906101000a900473ffffffffffffffffffffffffffffffffffffffff1690506000609960009054906101000a900473ffffffffffffffffffffffffffffffffffffffff16905061078661075d610ba5565b82868573ffffffffffffffffffffffffffffffffffffffff16610bad909392919063ffffffff16565b8173ffffffffffffffffffffffffffffffffffffffff168173ffffffffffffffffffffffffffffffffffffffff167f67ab782a6482bef8e7e066b42160e115b83ba3ff89c52d56e587a203837c38c5888888886040516107e9949392919061150d565b60405180910390a3505050505050565b61080161087c565b600073ffffffffffffffffffffffffffffffffffffffff168173ffffffffffffffffffffffffffffffffffffffff1603610870576040517f08c379a0000000000000000000000000000000000000000000000000000000008152600401610867906115bf565b60405180910390fd5b61087981610a32565b50565b610884610ba5565b73ffffffffffffffffffffffffffffffffffffffff166108a2610612565b73ffffffffffffffffffffffffffffffffffffffff16146108f8576040517f08c379a00000000000000000000000000000000000000000000000000000000081526004016108ef9061162b565b60405180910390fd5b565b610902610c36565b6000606560006101000a81548160ff0219169083151502179055507f5db9ee0a495bf2e6ff9c91a7834c1ba4fdd244a5e8aa4e537bd38aeae4b073aa610946610ba5565b604051610953919061111e565b60405180910390a1565b6000808273ffffffffffffffffffffffffffffffffffffffff163b119050919050565b600060019054906101000a900460ff166109cf576040517f08c379a00000000000000000000000000000000000000000000000000000000081526004016109c6906116bd565b60405180910390fd5b6109d7610c7f565b565b600060019054906101000a900460ff16610a28576040517f08c379a0000000000000000000000000000000000000000000000000000000008152600401610a1f906116bd565b60405180910390fd5b610a30610ce0565b565b6000603360009054906101000a900473ffffffffffffffffffffffffffffffffffffffff16905081603360006101000a81548173ffffffffffffffffffffffffffffffffffffffff021916908373ffffffffffffffffffffffffffffffffffffffff1602179055508173ffffffffffffffffffffffffffffffffffffffff168173ffffffffffffffffffffffffffffffffffffffff167f8be0079c531659141344cd1fd0a4f28419497f9722a3daafe3b4186f6b6457e060405160405180910390a35050565b610b00610b5b565b6001606560006101000a81548160ff0219169083151502179055507f62e78cea01bee320cd4e420270b5ea74000d11b0c9f74754ebdbfc544b05a258610b44610ba5565b604051610b51919061111e565b60405180910390a1565b610b63610435565b15610ba3576040517f08c379a0000000000000000000000000000000000000000000000000000000008152600401610b9a90611729565b60405180910390fd5b565b600033905090565b610c30846323b872dd60e01b858585604051602401610bce93929190611749565b604051602081830303815290604052907bffffffffffffffffffffffffffffffffffffffffffffffffffffffff19166020820180517bffffffffffffffffffffffffffffffffffffffffffffffffffffffff8381831617835250505050610d4c565b50505050565b610c3e610435565b610c7d576040517f08c379a0000000000000000000000000000000000000000000000000000000008152600401610c74906117cc565b60405180910390fd5b565b600060019054906101000a900460ff16610cce576040517f08c379a0000000000000000000000000000000000000000000000000000000008152600401610cc5906116bd565b60405180910390fd5b610cde610cd9610ba5565b610a32565b565b600060019054906101000a900460ff16610d2f576040517f08c379a0000000000000000000000000000000000000000000000000000000008152600401610d26906116bd565b60405180910390fd5b6000606560006101000a81548160ff021916908315150217905550565b6000610dae826040518060400160405280602081526020017f5361666545524332303a206c6f772d6c6576656c2063616c6c206661696c65648152508573ffffffffffffffffffffffffffffffffffffffff16610e149092919063ffffffff16565b9050600081511480610dd0575080806020019051810190610dcf9190611818565b5b610e0f576040517f08c379a0000000000000000000000000000000000000000000000000000000008152600401610e06906118b7565b60405180910390fd5b505050565b6060610e238484600085610e2c565b90509392505050565b606082471015610e71576040517f08c379a0000000000000000000000000000000000000000000000000000000008152600401610e6890611949565b60405180910390fd5b6000808673ffffffffffffffffffffffffffffffffffffffff168587604051610e9a91906119da565b60006040518083038185875af1925050503d8060008114610ed7576040519150601f19603f3d011682016040523d82523d6000602084013e610edc565b606091505b5091509150610eed87838387610ef9565b92505050949350505050565b60608315610f5b576000835103610f5357610f138561095d565b610f52576040517f08c379a0000000000000000000000000000000000000000000000000000000008152600401610f4990611a3d565b60405180910390fd5b5b829050610f66565b610f658383610f6e565b5b949350505050565b600082511115610f815781518083602001fd5b806040517f08c379a0000000000000000000000000000000000000000000000000000000008152600401610fb59190611aa1565b60405180910390fd5b6000819050919050565b610fd181610fbe565b82525050565b6000602082019050610fec6000830184610fc8565b92915050565b600080fd5b600080fd5b61100581610fbe565b811461101057600080fd5b50565b60008135905061102281610ffc565b92915050565b600073ffffffffffffffffffffffffffffffffffffffff82169050919050565b600061105382611028565b9050919050565b61106381611048565b811461106e57600080fd5b50565b6000813590506110808161105a565b92915050565b60008060006060848603121561109f5761109e610ff2565b5b60006110ad86828701611013565b93505060206110be86828701611071565b92505060406110cf86828701611071565b9150509250925092565b60008115159050919050565b6110ee816110d9565b82525050565b600060208201905061110960008301846110e5565b92915050565b61111881611048565b82525050565b6000602082019050611133600083018461110f565b92915050565b60006020828403121561114f5761114e610ff2565b5b600061115d84828501611071565b91505092915050565b60006020828403121561117c5761117b610ff2565b5b600061118a84828501611013565b91505092915050565b600080fd5b600080fd5b600080fd5b60008083601f8401126111b8576111b7611193565b5b8235905067ffffffffffffffff8111156111d5576111d4611198565b5b6020830191508360018202830111156111f1576111f061119d565b5b9250929050565b6000806000806060858703121561121257611211610ff2565b5b600085013567ffffffffffffffff8111156112305761122f610ff7565b5b61123c878288016111a2565b9450945050602061124f87828801611013565b925050604061126087828801611013565b91505092959194509250565b600082825260208201905092915050565b7f496e697469616c697a61626c653a20636f6e747261637420697320616c72656160008201527f647920696e697469616c697a6564000000000000000000000000000000000000602082015250565b60006112d9602e8361126c565b91506112e48261127d565b604082019050919050565b60006020820190508181036000830152611308816112cc565b9050919050565b6000819050919050565b600060ff82169050919050565b6000819050919050565b600061134b6113466113418461130f565b611326565b611319565b9050919050565b61135b81611330565b82525050565b60006020820190506113766000830184611352565b92915050565b7f536574206164647265737320746f207a65726f00000000000000000000000000600082015250565b60006113b260138361126c565b91506113bd8261137c565b602082019050919050565b600060208201905081810360008301526113e1816113a5565b9050919050565b7f4d696e696d756d2063616e6e6f74206265207a65726f00000000000000000000600082015250565b600061141e60168361126c565b9150611429826113e8565b602082019050919050565b6000602082019050818103600083015261144d81611411565b9050919050565b7f496e76616c696420616d6f756e74496e00000000000000000000000000000000600082015250565b600061148a60108361126c565b915061149582611454565b602082019050919050565b600060208201905081810360008301526114b98161147d565b9050919050565b82818337600083830152505050565b6000601f19601f8301169050919050565b60006114ec838561126c565b93506114f98385846114c0565b611502836114cf565b840190509392505050565b600060608201905081810360008301526115288186886114e0565b90506115376020830185610fc8565b6115446040830184610fc8565b95945050505050565b7f4f776e61626c653a206e6577206f776e657220697320746865207a65726f206160008201527f6464726573730000000000000000000000000000000000000000000000000000602082015250565b60006115a960268361126c565b91506115b48261154d565b604082019050919050565b600060208201905081810360008301526115d88161159c565b9050919050565b7f4f776e61626c653a2063616c6c6572206973206e6f7420746865206f776e6572600082015250565b600061161560208361126c565b9150611620826115df565b602082019050919050565b6000602082019050818103600083015261164481611608565b9050919050565b7f496e697469616c697a61626c653a20636f6e7472616374206973206e6f74206960008201527f6e697469616c697a696e67000000000000000000000000000000000000000000602082015250565b60006116a7602b8361126c565b91506116b28261164b565b604082019050919050565b600060208201905081810360008301526116d68161169a565b9050919050565b7f5061757361626c653a2070617573656400000000000000000000000000000000600082015250565b600061171360108361126c565b915061171e826116dd565b602082019050919050565b6000602082019050818103600083015261174281611706565b9050919050565b600060608201905061175e600083018661110f565b61176b602083018561110f565b6117786040830184610fc8565b949350505050565b7f5061757361626c653a206e6f7420706175736564000000000000000000000000600082015250565b60006117b660148361126c565b91506117c182611780565b602082019050919050565b600060208201905081810360008301526117e5816117a9565b9050919050565b6117f5816110d9565b811461180057600080fd5b50565b600081519050611812816117ec565b92915050565b60006020828403121561182e5761182d610ff2565b5b600061183c84828501611803565b91505092915050565b7f5361666545524332303a204552433230206f7065726174696f6e20646964206e60008201527f6f74207375636365656400000000000000000000000000000000000000000000602082015250565b60006118a1602a8361126c565b91506118ac82611845565b604082019050919050565b600060208201905081810360008301526118d081611894565b9050919050565b7f416464726573733a20696e73756666696369656e742062616c616e636520666f60008201527f722063616c6c0000000000000000000000000000000000000000000000000000602082015250565b600061193360268361126c565b915061193e826118d7565b604082019050919050565b6000602082019050818103600083015261196281611926565b9050919050565b600081519050919050565b600081905092915050565b60005b8381101561199d578082015181840152602081019050611982565b60008484015250505050565b60006119b482611969565b6119be8185611974565b93506119ce81856020860161197f565b80840191505092915050565b60006119e682846119a9565b915081905092915050565b7f416464726573733a2063616c6c20746f206e6f6e2d636f6e7472616374000000600082015250565b6000611a27601d8361126c565b9150611a32826119f1565b602082019050919050565b60006020820190508181036000830152611a5681611a1a565b9050919050565b600081519050919050565b6000611a7382611a5d565b611a7d818561126c565b9350611a8d81856020860161197f565b611a96816114cf565b840191505092915050565b60006020820190508181036000830152611abb8184611a68565b90509291505056fea2646970667358221220467bd3a0d9faeafbebd4fbd69a5409ee9386d3565aaa54ca924e26badcd4fc3b64736f6c63430008110033",
  "linkReferences": {},
  "deployedLinkReferences": {}
}